:1000000045C0000061C000005FC000005DC000008E
:100010005BC0000059C0000057C0000055C0000080
:1000200053C0000051C000004FC000004DC0000090
:100030004BC0000049C0000047C0000045C00000A0
:1000400043C0000041C0000075C000003DC000007A
:100050003BC0000039C0000037C0000035C00000C0
:1000600033C0000031C000002FC000002DC00000D0
:100070002BC0000062C4000027C0000025C00000A3
:1000800023C0000021C000001FC0000011241FBEBB
:10009000CFEFD0E1DEBFCDBF11E0A0E0B1E0E0EBFB
:1000A000F1E100E00BBF02C007900D92A230B10752
:1000B000D9F722E0A2E0B1E001C01D92A237B20759
:1000C000E1F757D00C94D6089BCF2CB53DB5232B28
:1000D000E1F325E535E545E851E40E94730820E0A9
:1000E00030E048EC53E448D617D7673183E078070F
:1000F00034F46A3071052CF46AE070E002C066E105
:1001000073E079BD68BD7BBD6ABD0895CF9318BA11
:1001100088E827D683E425D6C1E0C8BB18BA80E9B1
:1001200020D680E01ED6C8BB18BA80E21AD6C8BB5B
:10013000CF9108951F920F920FB60F9211240BB614
:100140000F928F93EF93FF93E091560281E08E0F11
:1001500080935602F0E08CB1EE5AFE4F8083FF91FF
:10016000EF918F910F900BBE0F900FBE0F901F90CD
:100170001895CF93DF93CDB7DEB764970FB6F89499
:10018000DEBF0FBECDBF8FEF8C838B838A838983C5
:100190009ED5D5D5DDD5A8D5BAD51BBC1ABC19BC02
:1001A00018BC60E070E0CB0190DF1DBC1CBCB8D572
:1001B000ADDF83E89FEF9093890080938800789467
:1001C000B12C0F2EF4E19F2EF02D0F2EF3E0AF2E69
:1001D000F02D7E0185E1E80EF11C0F2EF8E5CF2E03
:1001E000F2E0DF2EF02D6894772471F88824839450
:1001F000B8C0809171028130E1F018F08230E1F1F5
:10020000ABC0E0917002F0E0EE5AFE4F80818F3F6C
:1002100069F4809157028F5F809357028091570253
:10022000843009F099C08092710296C010925702F2
:1002300093C0E091570281E08E0F80935702F0E067
:10024000A0917002B0E0AE5ABE4F8C91E85AFD4FBB
:10025000808380915702883009F07EC0F601958135
:1002600080910001981303C07092710275C01092C2
:1002700071021092570270C0E091570281E08E0F18
:1002800080935702F0E0A0917002B0E0AE5ABE4FEA
:100290008C91E85AFD4F8083E0917002F0E0EE5AB5
:1002A000FE4F8081B80EF601948180915702981319
:1002B00044C08781B8123BC086818230C1F5608519
:1002C0007185828593855BD620E030E04AE754E46F
:1002D000BBD560934C0170934D0180934E01909378
:1002E0004F01F601648575858685978548D620E09F
:1002F00030E04AE754E4A8D560934801709349017F
:1003000080934A0190934B01F6016089718982893B
:10031000938935D620E030E04AE754E495D56093E0
:1003200044017093450180934601909347011092D8
:10033000710210925702B12C0FC0F6019481809186
:100340005702981720F080915702853128F01092BB
:10035000710210925702B12C809170028F5F8093CE
:1003600070029091700280915602981342CF809152
:100370005001909151014497A4F3109251011092B1
:100380005001809100018E839D82AF82188620E00B
:1003900030E04AE754E460911401709115018091B6
:1003A0001601909117019FD6B7D569877A878B87F9
:1003B0009C8720E030E04AE754E460912A01709184
:1003C0002B0180912C0190912D018DD6A5D56D87A3
:1003D0007E878F87988B20E030E04AE754E4609175
:1003E00040017091410180914201909143017BD67F
:1003F00093D5698B7A8B8B8B9C8BFE01399681917F
:100400009885890F8887EE15FF05C9F78E010F5F64
:100410001F4FF80181918F01A0D40E151F05C9F758
:10042000A0CF8F929F92AF92BF92CF92DF92EF9226
:10043000FF92CF93DF9300D000D0CDB7DEB76B0132
:100440007C0129833A834B835C8369817A818B8128
:100450009C81A7019601F4D488232CF4C980DA800A
:10046000EB80FC8014C089819A81AB81BC819C01A6
:10047000AD015058C701B601E3D4882344F4C980C4
:10048000DA80EB80FC80F7FAF094F7F8F094209192
:100490002A0130912B0140912C0150912D01C7016F
:1004A000B60169D46B017C01609322017093230132
:1004B000809324019093250129E838E848E05EE321
:1004C00060911E0170911F01809120019091210186
:1004D0000AD69B01AC01C701B6014DD4209126017B
:1004E00030912701409128015091290145D44B01B9
:1004F0005C0120E030E840E254E4F1D518166CF4D9
:1005000080E090E8A0E2B4E4809326019093270174
:10051000A0932801B09329011EC020E030E840E2FA
:1005200054ECC501B4018CD488234CF08092260190
:1005300090922701A0922801B09229010CC080E07E
:1005400090E8A0E2B4EC8093260190932701A09359
:100550002801B09329012DEC3CEC4CE45DE3609163
:100560002601709127018091280190912901BBD526
:100570002AE037ED43E25CE3B6D54B015C0120E0B5
:1005800030E040EF50E4C701B601ADD59B01AC01AE
:10059000C501B401F1D36B017C012FED30EE4BE8C6
:1005A0005DE3609140017091410180914201909121
:1005B000430199D59B01AC01C701B601DDD360931E
:1005C0001A0170931B0180931C0190931D0160918F
:1005D0001A0170911B0180911C0190911D0120E076
:1005E00030E840E254E47BD5181614F560911A0106
:1005F00070911B0180911C0190911D0120E030E859
:1006000040E254E4B8D360931E0170931F018093BD
:1006100020019093210180E090E8A0E2B4E480936F
:100620001A0190931B01A0931C01B0931D0130C0CF
:1006300060911A0170911B0180911C0190911D0124
:1006400020E030E840E254ECFBD388230CF56091C5
:100650001A0170911B0180911C0190911D0120E0F5
:1006600030E840E254E488D360931E0170931F0188
:10067000809320019093210180E090E8A0E2B4EC07
:1006800080931A0190931B01A0931C01B0931D014C
:100690000F900F900F900F90DF91CF91FF90EF9000
:1006A000DF90CF90BF90AF909F908F9008958F92E2
:1006B0009F92AF92BF92CF92DF92EF92FF92CF9331
:1006C000DF9300D000D0CDB7DEB76B017C0129836A
:1006D0003A834B835C8369817A818B819C81A701FA
:1006E0009601AED388232CF4C980DA80EB80FC809D
:1006F00014C089819A81AB81BC819C01AD015058A5
:10070000C701B6019DD3882344F4C980DA80EB8009
:10071000FC80F7FAF094F7F8F094209140013091C2
:1007200041014091420150914301C701B60123D3D9
:100730006B017C01609338017093390180933A0119
:1007400090933B012DE339E243EF50E46091340193
:10075000709135018091360190913701C4D49B018D
:10076000AC01C701B60107D320913C0130913D0196
:1007700040913E0150913F01FFD24B015C0120E0CE
:1007800030E040EC51E4ABD418166CF480E090E01B
:10079000A0ECB1E480933C0190933D01A0933E0115
:1007A000B0933F011EC020E030E040EC51ECC501A9
:1007B000B40146D388234CF080923C0190923D01D5
:1007C000A0923E01B0923F010CC080E090E0A0EC0E
:1007D000B1EC80933C0190933D01A0933E01B09316
:1007E0003F0120E030E040EB53E460913C01709128
:1007F0003D0180913E0190913F0175D42FE632E199
:1008000043E05AE370D44B015C0127E232EC46E04E
:100810005EE3C701B60167D49B01AC01C501B40119
:10082000ABD26B017C012FED30EE4BE85DE36091C4
:100830002A0170912B0180912C0190912D0153D4AC
:100840009B01AC01C701B60197D260933001709350
:1008500031018093320190933301609130017091A6
:100860003101809132019091330120E030E040EC81
:1008700051E435D4181614F56091300170913101AE
:10088000809132019091330120E030E040EC51E45E
:1008900072D2609334017093350180933601909346
:1008A000370180E090E0A0ECB1E4809330019093B8
:1008B0003101A0933201B093330130C06091300117
:1008C00070913101809132019091330120E030E04C
:1008D00040EC51ECB5D288230CF560913001709159
:1008E0003101809132019091330120E030E040EC01
:1008F00051E442D260933401709335018093360104
:100900009093370180E090E0A0ECB1EC809330014F
:1009100090933101A0933201B09333010F900F9067
:100920000F900F90DF91CF91FF90EF90DF90CF90DD
:10093000BF90AF909F908F9008951F920F920FB627
:100940000F9211240BB60F928F929F92AF92BF928B
:10095000CF92DF92EF92FF922F933F934F935F934B
:100960006F937F938F939F93AF93BF93CF93EF93A7
:10097000FF9383E89FEF909389008093880018BAD3
:1009800088EEEFD1C1E0C8BB18BA88E6EAD1EED153
:10099000C82ED12CE12CF12CFE2CED2CDC2CCC24FF
:1009A000E5D1C82AFE2CED2CDC2CCC24DFD1C82AC2
:1009B000FE2CED2CDC2CCC24D9D1C8BBC82AF09459
:1009C000E094D094C094C11CD11CE11CF11CC092D5
:1009D0006C02D0926D02E0926E02F0926F028091F2
:1009E0006C0290916D02A0916E02B0916F02BC01F9
:1009F000CD01660F771F881F991FC1D22BED3FE0F5
:100A000049E450E470D320E030E042EA58E41CD2DC
:100A10006093140170931501809316019093170150
:100A20002091100130911101409112015091130158
:100A3000A2D120E030E04AEF54E455D360932A017C
:100A400070932B0180932C0190932D0180E06DD148
:100A5000BC01990F880B990B92D220E030E040EA5C
:100A600050E441D320E030E040E85AE33CD320E0BA
:100A700030E040E250E47FD120E030E040E251E459
:100A800032D360934001709341018093420190936F
:100A9000430160914C0170914D0180914E01909104
:100AA0004F01209114013091150140911601509190
:100AB000170161D16B017C0160930C0170930D01F2
:100AC00080930E0190930F01809102019091030198
:100AD000883E934069F51092030110920201209123
:100AE00008013091090140910A0150910B01C701A1
:100AF000B60141D12BE734E14EEA5DE3F4D29B012C
:100B0000AC013AD14B015C012AE939E949E050E4F2
:100B1000C701B601E8D29B01AC01C501B4012CD1DB
:100B2000609304017093050180930601909307017F
:100B3000809118019091190184369105A9F41092C1
:100B400019011092180120914801309149014091FA
:100B50004A0150914B01609104017091050180910F
:100B60000601909107015DDC80912E0190912F018B
:100B70000A97A9F410922F0110922E01209144019E
:100B800030914501409146015091470160911A0111
:100B900070911B0180911C0190911D0188DD609175
:100BA0004C0170914D0180914E0190914F0120E0D8
:100BB00030E0A90145D1811121C0609148017091B7
:100BC000490180914A0190914B0120E030E0A90158
:100BD00037D1811113C0609144017091450180911A
:100BE00046019091470120E030E0A90129D181110F
:100BF00005C060E070E0CB0168DA09C060913001A7
:100C00007091310180913201909133015EDA8091CF
:100C10000C0190910D01A0910E01B0910F018093F4
:100C2000080190930901A0930A01B0930B018091F0
:100C30005001909151010196909351018093500180
:100C40008091140190911501A0911601B0911701A6
:100C50008093100190931101A0931201B09313019E
:100C600080912E0190912F01019690932F018093F6
:100C70002E0180911801909119010196909319010C
:100C80008093180180910201909103010196909345
:100C9000030180930201FF91EF91CF91BF91AF913A
:100CA0009F918F917F916F915F914F913F912F9184
:100CB000FF90EF90DF90CF90BF90AF909F908F907C
:100CC0000F900BBE0F900FBE0F901F9018958FEFD7
:100CD0008ABB84BB88E081BB87EE87BB8AE182B98F
:100CE0001BBA87E088BB089582EE8FBD89E18EBD77
:100CF0008FE193E097BD86BD109279001092780045
:100D00001BBC1ABC19BC18BC1DBC1CBC089510929D
:100D10008B0083E080938A0084E080937D000895B7
:100D200080E487B986E886B9089597B1907F890FE6
:100D300087B9369A349BFECF84B195B108951BB81C
:100D400088E98AB986E08093950087E689B9089595
:100D500080E58DB981E08EB908955D9BFECF8CB999
:100D600008958FB9779BFECF8FB108951FB8779BF9
:100D7000FECF8FB108955058BB27AA270ED075C15A
:100D800066D130F06BD120F031F49F3F11F41EF4A6
:100D90005BC10EF4E095E7FB51C1E92F77D180F3F9
:100DA000BA17620773078407950718F071F49EF568
:100DB0008FC10EF4E0950B2EBA2FA02D0B01B901B7
:100DC00090010C01CA01A0011124FF27591B99F0C1
:100DD000593F50F4503E68F11A16F040A22F232FCD
:100DE000342F4427585FF3CF469537952795A7951D
:100DF000F0405395C9F77EF41F16BA0B620B730BC4
:100E0000840BBAF09150A1F0FF0FBB1F661F771F34
:100E1000881FC2F70EC0BA0F621F731F841F48F4E9
:100E2000879577956795B795F7959E3F08F0B3CF6F
:100E30009395880F08F09927EE0F97958795089559
:100E4000D9D008F481E008950CD00FC107D140F04B
:100E5000FED030F021F45F3F19F0F0C0511139C1DC
:100E6000F3C014D198F39923C9F35523B1F3951B1B
:100E7000550BBB27AA2762177307840738F09F5FBB
:100E80005F4F220F331F441FAA1FA9F333D00E2E2A
:100E90003AF0E0E830D091505040E695001CCAF797
:100EA00029D0FE2F27D0660F771F881FBB1F26175C
:100EB00037074807AB07B0E809F0BB0B802DBF012F
:100EC000FF2793585F4F2AF09E3F510568F0B6C048
:100ED00000C15F3FECF3983EDCF38695779567950C
:100EE000B795F7959F5FC9F7880F911D96958795E0
:100EF00097F90895E1E0660F771F881FBB1F6217FF
:100F000073078407BA0720F0621B730B840BBA0BBC
:100F1000EE1F88F7E095089504D06894B111D9C008
:100F20000895BCD088F09F5790F0B92F9927B751FA
:100F3000A0F0D1F0660F771F881F991F1AF0BA959D
:100F4000C9F712C0B13081F0C3D0B1E00895C0C07C
:100F5000672F782F8827B85F39F0B93FCCF3869593
:100F600077956795B395D9F73EF4909580957095F0
:100F700061957F4F8F4F9F4F0895E89409C097FB6D
:100F80003EF490958095709561957F4F8F4F9F4F60
:100F90009923A9F0F92F96E9BB279395F6958795A4
:100FA00077956795B795F111F8CFFAF4BB0F11F467
:100FB00060FF1BC06F5F7F4F8F4F9F4F16C088230E
:100FC00011F096E911C0772321F09EE8872F762F44
:100FD00005C0662371F096E8862F70E060E02AF085
:100FE0009A95660F771F881FDAF7880F9695879571
:100FF00097F90895990F0008550FAA0BE0E8FEEF46
:1010000016161706E807F907C0F012161306E407CC
:10101000F50798F0621B730B840B950B39F40A26C5
:1010200061F0232B242B252B21F408950A2609F4A3
:10103000A140A6958FEF811D811D089597F99F67A7
:1010400080E870E060E008959FEF80EC0895002450
:101050000A941616170618060906089500240A941D
:1010600012161306140605060895092E0394000CA3
:1010700011F4882352F0BB0F40F4BF2B11F460FF32
:1010800004C06F5F7F4F8F4F9F4F089557FD90585B
:10109000440F551F59F05F3F71F04795880F97FB3C
:1010A000991F61F09F3F79F08795089512161306F6
:1010B0001406551FF2CF4695F1DF08C01616170625
:1010C0001806991FF1CF869571056105089408955A
:1010D000E894BB2766277727CB0197F908958ADF25
:1010E00008F48FEF08950BD0C0CFB1DF28F0B6DF42
:1010F00018F0952309F0A2CFA7CF1124EACFC6DFBD
:10110000A0F3959FD1F3950F50E0551F629FF0011A
:10111000729FBB27F00DB11D639FAA27F00DB11D73
:10112000AA1F649F6627B00DA11D661F829F2227FC
:10113000B00DA11D621F739FB00DA11D621F839F83
:10114000A00D611D221F749F3327A00D611D231F59
:10115000849F600D211D822F762F6A2F11249F57A7
:1011600050408AF0E1F088234AF0EE0FFF1FBB1FCA
:10117000661F771F881F91505040A9F79E3F510569
:1011800070F05CCFA6CF5F3FECF3983EDCF3869522
:1011900077956795B795F795E7959F5FC1F7FE2B14
:1011A000880F911D9695879597F90895F894FFCF2C
:0211B00001003C
:00000001FF
